:020000040000FA
:060000009EEF06F0120065
:020006001200E6
:060008005EEF05F012009E
:02000E000000F0
:06001000000000000000EA
:060018002CEF06F01200BF
:02001E000200DE
:1000200010000000B8000000060000000E000000F4
:08003000BE0000000200000008
:080038000001010EBE6F120071
:100040000001BE5103E1030EBF5D02E0000E08D0C7
:100050000001815103E0010E03D002D0810E00D0D7
:1000600012000001BF6B030E0001BF5D02E002D869
:10007000FAD71200D9CFE6FFE1CFD9FF050EE1266E
:100080000001BF51080A01E140D10F0A01E1F5D09A
:10009000010A01E17CD0030A69E0010A42E0070A93
:1000A0003BE0010A14E0030A0AE0010A01E034D14E
:1000B00000010B0E906F0001010EBF6F2DD10001EA
:1000C000905101E029D10001020EBF6F25D100013E
:1000D000020E806FE66A700EE66E96DBE552E55220
:1000E00000018051040DF3504309DF6EE66ADFCF53
:1000F000E6FF8ADBE552E552E66A6F0EE66E84DBC8
:10010000E552E552E66A550EE66E7EDBE552E552B3
:100110000001030EBF6F00D1BE5102E0040EBF6F9D
:10012000FBD0E66A700EE66E6FDBE552E552000129
:100130008051040DF3504309DF6EE66ADFCFE6FF1E
:1001400063DBE552E552E66A500EE66E5DDBE55292
:10015000E552E66A6B0EE66E57DBE552E5520001AA
:10016000060E906F0001050EBF6FD6D000019051B2
:1001700001E0D2D0E66A680EE66E46DBE552E55253
:100180000001020E906F0001060EBF6FC5D0000186
:10019000905101E0C1D0E66A600EE66E35DBE552B3
:1001A000E552010EE66E060EE66E2EDBE552E552D6
:1001B000E76E010EE7CFDBFFDBA804D00001080EDD
:1001C000BF6FAAD0E66E080EE66E1EDBE552E55262
:1001D000E66ED950020FE96EDACFEAFFE552E7503A
:1001E000EE6EED6AD950020FE96EDACFEAFF010E2A
:1001F000D890EE36ED36E806FBE1D950020FE96EF5
:10020000DACFEAFF3F0EEE26000EED22D950020FA4
:10021000E96EDACFEAFF3F0EEE16ED6AE66A020EED
:10022000DB508009E66EF0DAE552E552010EE66E2B
:10023000020EE66EE9DAE552E552E76E010EE7CF0F
:10024000DBFFDB50006E016A020EDB50001803E199
:10025000030EDB50011804E00001080EBF6F5CD0F4
:10026000B2DB0001960E906F0001070EBF6F000118
:10027000826B846BF292F2884FD0040E0001825D93
:1002800036E1CBDB040EDB6A0A0EF36E040EDBCF25
:10029000F4FFF350F45C23E2300E006E040EDB50EA
:1002A000EA6A850FE96E000EEA220050EF26040E7E
:1002B000DB50EA6A850FE96E000EEA22EF5039083A
:1002C0000BE2070E006E040EDB50EA6A850FE96E42
:1002D000000EEA220050EF26040EDB2AD5D70001DB
:1002E000010E816F0001BE6B020EBF6F15D09051E1
:1002F00003E0060E825D08E190DB0001816B0001E6
:10030000BE6B020EBF6FF29807D00001816B000137
:10031000BE6B020EBF6F00D0050EE15C02E2E16A27
:10032000E552E16EE552E7CFD9FF1200D9CFE6FFE3
:10033000E1CFD9FFF292020E0001825D1EE3FD0EB5
:10034000DBCF00F0FE0EDBCF01F09551005C965143
:10035000015803E2640E996F10D0FD0EDBCF00F060
:10036000FE0EDBCF01F09751005C9851015803E27B
:10037000960E996F02D0C80E996F8251060A01E15C
:1003800059D1030A01E14DD1010A01E148D1070A1F
:1003900001E195D0010A5DE0030A09E0010A01E0EC
:1003A0004BD1836B91699269010E826F45D1835164
:1003B000020811E2FD0EDBCF00F0FE0EDBCF01F0F4
:1003C0009151005C9251015806E2FD0EDBCF91F095
:1003D000FE0EDBCF92F0150E835D39E34C0E915D7E
:1003E000000E925903E2050E826F26D1D00ED880FE
:1003F0009155020E925503E2050E826F1DD191C0F8
:1004000093F092C094F0D89094339333D89094336F
:10041000933391519325956F92519421966F9151F9
:100420009325026E92519421036E02509325006E23
:1004300003509421016E00509325976F0150942131
:10044000986F020E826F836B9A6B9B6BF5D0832B38
:10045000F3D0640E995D02E19A2B01D09A6B995109
:10046000006E016AC80E001801E1015002E19B2BE9
:1004700001D09B6B080E9A5D08E1010E9C6F836BA7
:100480009D6B9E6F030E826FD7D0080E9B5D08E1B7
:100490009C6B836B9D6B010E9E6F030E826FCCD0A5
:1004A0008351006E016A013404E200508008000E9E
:1004B000015403E2050E826FBFD0832BBDD09C5147
:1004C00046E0640E995D07E19EC0E6FFB9D8E552AB
:1004D00000019F6F3BD09951006E016A960E001883
:1004E00001E101501CE19D510AE19E719EC0E6FFB1
:1004F000A7D8E55200019F6F010E9D6F0FD09EC0DF
:10050000E6FF9ED8E55200019F6F9E719EC0E6FFF8
:1005100097D8E55200019F6F9D6B832B17D099519F
:10052000006E016AC80E001801E101500FE19E71D2
:100530009EC0E6FF85D8E55200019F6F9E719EC068
:10054000E6FF7ED8E55200019F6F832B5CD09D5162
:1005500030E1640E995D06E1E66A72D8E552000169
:100560009F6F26D09951006E016A960E001801E126
:10057000015009E1010EE66E63D8E55200019F6F5C
:10058000010E9D6F15D09951006E016AC80E0018BA
:1005900001E101500DE1010EE66E52D8E552000175
:1005A0009F6F010EE66E4CD8E55200019F6F832BC2
:1005B0002AD0640E995D06E1E66A42D8E552000150
:1005C0009F6F21D09951006E016A960E001801E1CB
:1005D00001500EE1E66A34D8E55200019F6F010E2A
:1005E000E66E2ED8E55200019F6F9D6B832B0BD0DA
:1005F0009951006E016AC80E001801E1015003E133
:10060000050E826F19D09F5108E09FA303D0050EFD
:10061000826F02D0040E826F0FD0832B0DD0F29820
:100620000BD0050E845D03E2842B826B02D0060E94
:10063000826F02D0F29800D0E552E7CFD9FF1200C6
:10064000D9CFE6FFE1CFD9FF000183510EE1A26BC4
:10065000A06BA16B856B866B876B886B896B8A6BD4
:100660008B6B8C6B8D6B8E6B8F6BA0510A0802E2CB
:10067000A251C6D0A151040A39E0070A2BE0010AB1
:100680001DE0030A0FE0010A01E0B8D0FE0EDB50C6
:1006900007E0A051EA6A850FE96E000EEA22EF86B4
:1006A000A12BACD0FE0EDB5007E0A051EA6A850F0B
:1006B000E96E000EEA22EF84A12BA0D0FE0EDB50E3
:1006C00007E0A051EA6A850FE96E000EEA22EF8288
:1006D000A12B94D0FE0EDB5007E0A051EA6A850FF3
:1006E000E96E000EEA22EF80A12B88D00A0EA05DF1
:1006F00029E2A051EA6A850FE96E000EEA22EF5066
:10070000A46FA56BA36BA451A5110DE0A32BA4C0EE
:1007100000F0A5C001F00006000E015A0050A41719
:100720000150A517F0D7010EA31503E0FE0EDB5014
:1007300006E0010EA31505E1FE0EDB5002E0030EFC
:10074000A26F59D0FE0EDB5003E0030EA26F53D010
:10075000010EA26F080EA16FA15100084CE2A46B1C
:10076000A56B8551A11501E0A5838651A11501E076
:10077000A5818751A11501E0A48F8851A11501E041
:10078000A48D8951A11501E0A48B8A51A11501E026
:10079000A4898B51A11501E0A4878C51A11501E01A
:1007A000A4858D51A11501E0A4838E51A11501E00E
:1007B000A481A36BA451A5110DE0A32BA4C000F04C
:1007C000A5C001F00006000E015A0050A417015008
:1007D000A517F0D7010EA31503E08F51A11506E070
:1007E000010EA31505E18F51A11502E0030EA26FC2
:1007F000A191A143B1D7A16BA02B00D0A25100D0F1
:10080000E552E7CFD9FF1200D9CFE6FFE1CFD9FFFC
:10081000E652DF6A8B920000000000008B9000001F
:100820008B8200008B800000000000008B92000093
:1008300000000000FE0EDBAE02D08B8001D08B905A
:100840008B820000000000008B920000000000007E
:10085000FE0EDBAC02D08B8001D08B908B8200002F
:10086000000000008B92000000000000FE0EDBAADA
:1008700002D08B8001D08B908B82000000000000A2
:100880008B92000000000000FE0EDBA802D08B80DF
:1008900001D08B908B820000000000008B92000042
:1008A00000000000FE0EDBA602D08B8001D08B90F2
:1008B0008B820000000000008B920000000000000E
:1008C000FE0EDBA402D08B8001D08B908B820000C7
:1008D000000000008B92000000000000FE0EDBA272
:1008E00002D08B8001D08B908B8200000000000032
:1008F0008B92000000000000FE0EDBA002D08B8077
:1009000001D08B908B82000000000000FD0EDB50B8
:1009100052E08B920000000000008B82000000007B
:10092000000081B0DF8E8B920000000000008B82FF
:1009300000000000000081B0DF8C8B9200000000FE
:1009400000008B8200000000000081B0DF8A8B92E3
:100950000000000000008B8200000000000081B059
:10096000DF888B920000000000008B8200000000F6
:10097000000081B0DF868B920000000000008B82B7
:1009800000000000000081B0DF848B9200000000B6
:1009900000008B8200000000000081B0DF828B929B
:1009A0000000000000008B8200000000000081A019
:1009B00002D0000EDB808B92DF5000D0E552E55272
:1009C000E7CFD9FF12008B920000000000008B904F
:1009D00000008B8200008B800000000000008B92E2
:1009E0000000000000008B808B82000000000000EF
:1009F0008B920000000000008B808B8200000000C2
:100A000000008B920000000000008B808B820000B1
:0E0A1000000000008B928B9012008B8212006F
:020A1E000400D2
:100A2000896A8A6A8B6A926A010E936E946AF19E51
:100A3000C26A0F0EC16EF18CD59CD59AD598D59609
:100A4000D594D592D590D58EF28ACD8ECD9CCD966B
:100A5000CD9ACD98CD94CD92CD80F28E1200DFDF6D
:100A600004003AEC00F002D8FBD71200D9CFE6FF21
:100A7000E1CFD9FFE6520001BA510CE1B851B911EA
:100A800008E11CEC00F00001010EBA6F190EB86FFE
:100A9000B96B0FD020EC00F0DF6EDF5001E109D020
:100AA000DF0403E18A968A8802D08A868A98000148
:100AB000BA6BE552E552E7CFD9FF1200D8CFE4FF79
:100AC000E0CFE4FFE46EDACFE4FFE2CFDAFFE9CF74
:100AD000E4FFEACFE4FFF6CFE4FFF7CFE4FFF5CF82
:100AE000E4FFF3CFE4FFF4CFE4FFFACFE4FF00EE3E
:100AF00008F0020EE80403E3EECFE4FFFBD700EEBC
:100B000000F0040EE80403E3EECFE4FFFBD7E65267
:100B1000F250100B38E0F250020B35E0CE500001DD
:100B2000B46FB56BCF50046E04C005F0046A045076
:100B30000001B41305500001B5130001B6510001C6
:100B4000B45D0001B26F0001B7510001B559000159
:100B5000B36FB4C0B6F0B5C0B7F0B2C004F0B3C064
:100B600005F0030ED89005320432E804FBE104C01E
:100B7000B2F005C0B3F0B2C0E6FFB3C0E6FF96EC3A
:100B800001F0E552E552F250040B3DE0F250200B2B
:100B90003AE0F294D6CF06F0D7CF07F06E0E0626D5
:100BA000F00E072207C0D7FF06C0D6FF0001905104
:100BB00002E0000190070001BB2B0A0E0001BB5DA3
:100BC0000AE10001BB6B0001B851B91104E000015A
:100BD000B807000EB95B0001BC2B640E0001BC5DC0
:100BE00012E10001BC6B0001B051B11104E0000141
:100BF000B007000EB15B0001BD2B0A0E0001BD5D08
:100C000002E10001BD6BE55200EE03F0040EE804C2
:100C100003E3E5CFEDFFFBD700EE09F0020EE80499
:100C200003E3E5CFEDFFFBD7E5CFFAFFE5CFF4FF18
:100C3000E5CFF3FFE5CFF5FFE5CFF7FFE5CFF6FF13
:100C4000E5CFEAFFE5CFE9FFE5CFDAFFE550E5CFF5
:100C5000E0FFE5CFD8FF1000D8CFE4FFE0CFE4FFFE
:100C6000E46EDACFE4FFE2CFDAFFE652E552E5CFF9
:0E0C7000DAFFE550E5CFE0FFE5CFD8FF10003A
:020C7E001E0E48
:100C8000F66E000EF76E000EF86E00010900F550CA
:100C9000AB6F0900F550AC6F03E1AB6701D03DD0FD
:100CA0000900F550A66F0900F550A76F0900F5502F
:100CB000A86F09000900F550E96E0900F550EA6EC9
:100CC000090009000900F550A96F0900F550AA6F45
:100CD00009000900F6CFADF0F7CFAEF0F8CFAFF0D6
:100CE000A6C0F6FFA7C0F7FFA8C0F8FF0001A953F0
:100CF00002E1AA5307E00900F550EE6EA907F8E2F9
:100D0000AA07F9D7ADC0F6FFAEC0F7FFAFC0F8FF36
:0C0D10000001AB07000EAC5BBFD7120067
:040D1C00000EF36E64
:100D200000EE00F0030E01D81200EA6002D0EE6A75
:0C0D3000FCD7F350E9601200EE6AFCD71B
:040D3C0012EE00F0C3
:100D400022EE00F0F86A099C3FEC06F003EC00F09C
:080D50002FEC05F0FBD71200A7
:020000040030CA
:0100010006F8
:010002000FEE
:010003000EEE
:010005008179
:0100060001F8
:010008000FE8
:01000900C036
:01000A000FE6
:01000B00E014
:01000C000FE4
:01000D0040B2
:00000001FF
